S00E000053414D504C452E7372656354
S113000029C000009EC20000D9C100003EC000000B
S11300103CC000003AC0000038C0000036C00000F8
S113002034C0000032C0000030C000002EC0000008
S11300302CC000002AC0000028C0000026C0000018
S113004024C0000022C0000020C000001EC0000028
S11300501CC0000011241FBECFE5D8E0DEBFCDBF19
S113006010E0A0E6B0E0E2E9F6E002C005900D92EF
S1130070A63AB107D9F720E0A6EAB0E001C01D9284
S1130080AD3AB207E1F75CD002C3BACFDA9A000006
S11300900000DA98089517BAD99AD898C79B03C074
S11300A0F5DFC799FDCF8FEF87BB0895CF93C82F96
S11300B0F2DFD998D898C8BBE9DF18BACF91089570
S11300C0CF93C82FE8DFD998D89AC8BBDFDF18BA16
S11300D0CF910895CF93DF93EC018881882329F091
S11300E02196EEDF89918111FCCFDF91CF910895A4
S11300F08158FB01EE0FFF1FEE59FF4F9081890FCE
S1130100D5CF08958FEF8ABB87E99AE30197F1F77A
S113011000C0000081E3CADF8BE49DE10197F1F7A1
S113012000C0000088E3C2DF9AE09A95F1F78CE002
S1130130BDDF87E99AE30197F1F700C00000089555
S1130140EF92FF920F931F93CF93DF93DBDF61E076
S113015070E083E090E0CCDF88E690E0BBDF62E013
S113016070E08AE090E0C4DF87E790E0B3DF2FE33C
S11301708DE093E0215080409040E1F700C0000002
S113018062E070E08AE090E0B3DF8EE890E0A2DF06
S113019062E070E08AE090E0ABDF89E790E09ADF0C
S11301A02FE38DE093E0215080409040E1F700C0C0
S11301B0000062E070E08AE090E09ADF8EE890E070
S11301C089DF62E070E08AE090E092DF8BE790E004
S11301D081DF2FE38DE093E0215080409040E1F7F0
S11301E000C0000062E070E08AE090E081DF8EE809
S11301F090E070DF61E070E083E090E079DF8DE70C
S113020090E068DF61E070E081E090E071DF80E918
S113021090E060DF8B98939A85B7816085BF8BB738
S113022080648BBF8A98929A85B7816085BF8BB7AB
S113023080688BBF789481E090E09093A7008093CE
S1130240A60080E190E09093A9008093A8006894B0
S1130250EE24E1F8F12C01E010E0C0E1D0E080915F
S1130260A8009091A900209160003091610082174C
S1130270930769F56091A6007091A7002091620030
S1130280309163006217730711F532DF8EE890E056
S113029021DF6091A6007091A7008091A800909141
S11302A0A90026DF8EE890E015DF61E070E083E0CE
S11302B090E01EDF82E990E00DDF2FE78AE196E00F
S11302C0215080409040E1F700C000006EC0609172
S11302D0A6007091A7000CDF8CE990E0FBDE2FE311
S11302E08DE093E0215080409040E1F700C0000091
S11302F06091A6007091A7008091A8009091A90038
S1130300F7DE8EE890E0E6DE8091A6009091A700EB
S11303108130910519F0029731F009C0F092A700DD
S1130320E092A60004C01093A7000093A600809159
S1130330A8009091A9000197009729F09093A90033
S11303408093A80004C0D093A900C093A800809112
S1130350600090916100409709F081CF6091620044
S11303607091630080E190E0C3DE8EE890E0B2DE3D
S11303706091A6007091A7008091A8009091A900B7
S1130380B7DE8EE890E0A6DE61E070E083E090E006
S1130390AFDE8EE990E09EDE2FE78AE196E0215001
S11303A080409040E1F700C0000080E090E0DF91E1
S11303B0CF911F910F91FF90EF9008951F920F928C
S11303C00FB60F9211242F933F934F935F936F9324
S11303D07F938F939F93AF93BF93EF93FF9320915A
S11303E0A8003091A90080916000909161002817C5
S11303F0390771F56091A6007091A70040916200E1
S1130400509163006417750719F5C90171DE8EE810
S113041090E060DE6091A6007091A7008091A80032
S11304209091A90065DE8EE890E054DE61E070E012
S113043083E090E05DDE82E990E04CDE2FE78AE124
S113044096E0215080409040E1F700C000003BC09E
S1130450209162003091630021303105C9F461E0DC
S113046070E046DE8EE890E035DE609162007091C7
S113047063006F5F7F4F70936300609362008091AD
S113048060009091610034DE80E990E023DE1BC0BF
S113049022303105C1F462E070E02ADE8EE890E09B
S11304A019DE60916200709163006150710970936C
S11304B0630060936200809160009091610018DE97
S11304C080E990E007DE80916000909161004097A0
S11304D039F5609162007091630080E190E008DE7C
S11304E08EE890E0F7DD6091A6007091A7008091FE
S11304F0A8009091A900FCDD8EE890E0EBDD61E0BE
S113050070E083E090E0F4DD8EE990E0E3DD2FE736
S11305108AE196E0215080409040E1F700C000005D
S1130520FF91EF91BF91AF919F918F917F916F91C7
S11305305F914F913F912F910F900FBE0F901F909D
S113054018951F920F920FB60F9211242F933F9379
S11305504F935F936F937F938F939F93AF93BF93C7
S1130560EF93FF932091A8003091A900809160003F
S1130570909161002817390771F56091A600709178
S1130580A70040916200509163006417750719F544
S1130590C901AEDD8EE890E09DDD6091A60070910A
S11305A0A7008091A8009091A900A2DD8EE890E0B8
S11305B091DD61E070E083E090E09ADD82E990E013
S11305C089DD2FE78AE196E0215080409040E1F7F1
S11305D000C000001EC0609162007091630088DD5D
S11305E08EE890E077DD6091620070916300809105
S11305F060009091610001967BDD80E990E06ADD06
S113060080916000909161000196909361008093C5
S113061060008091600090916100409739F560918D
S113062062007091630080E190E062DD8EE890E00A
S113063051DD6091A6007091A7008091A80090916F
S1130640A90056DD8EE890E045DD61E070E083E0CE
S113065090E04EDD8EE990E03DDD2FE78AE196E003
S1130660215080409040E1F700C00000FF91EF91DD
S1130670BF91AF919F918F917F916F915F914F91B6
S11306803F912F910F900FBE0F901F901895F894E3
S1050690FFCF96
S1130692010001004000000067406D652073746131
S11306A272747320696E00330032003100202020FE
S11306B22020202020202020202020202020200054
S11306C2700067616D65206F766572002300796F33
S10906D2752077696E003B
S9030000FC
